:1001E7001200E2F59D9000011200FBFFE5BC549F51
:1001F7004FF5BC9000021200FB6401700543BC8000
:10020700800353BC7F9000031200FB640170054319
:10021700972080035397DF9000051200FB6401705D
:1002270004D2AD8002C2AD9000041200FB640170DD
:0702370003D2BD22C2BD226B
:0D02A700EF6401700443BC802253BC7F2231
:10017D00EFD394077480948040028059E4F5BDF567
:10018D00BEE5BC54E044084FF5BC00000000E4FBA4
:10019D00EBC394FA74809480503BE5BC30E4335348
:1001AD00BCEFE59730E509E5BD5403ADBEFC801D00
:1001BD00AFBD7C00AD077E00ED7802C333CE33CEEC
:1001CD00D8F9FFE5BE5403FDEEFCEF4DFDAF05AED6
:0901DD0004220B80BB7E047F00AC
:0101E60022F6
:03002B00020020B0
:0400200053BCEF32AC
:0F0289007DA57C06ED1D70011C144C70F7DFF194
:010298002243
:030024000D0A00C2
:10000300750B07750C20750D01E4F50EF50FF51052
:0D001300FB7A00790B1201E77F010202A7C2
:10002E00120003E4F508C3E508940374809480403D
:10003E00030200D87FFA120289AF0812017D8E09E1
:10004E008F0A7F4112023E7F4412023EE5082430A1
:10005E00FF12023E7F3D12023EAE09AF0A7C037DC7
:10006E00E8120128EF2430FF12023EAE09AF0A7CDF
:10007E00037DE81201287E007F64CFCDCFCECCCE9B
:10008E00120128EF2430FF12023EAE09AF0A7C00A7
:10009E007D641201287E007F0ACFCDCFCECCCE124A
:1000AE000128EF2430FF12023EAE09AF0A7C007D1C
:1000BE000A120128ED2430FF12023E7F2012023E6A
:1000CE007F2012023E05080200347E007F241202B9
:0400DE00710200317A
:0D0299007FAF7E00EF1F70011E144E70F746
:0102A6002235
:02023E00AD070A
:10024000C2AFC2B1120299E4FCECC394087480946A
:10025000805014ED30E004D2B18002C2B1EDC3137E
:10026000FD1202990C80E2D2B1D2AF1202990202C1
:0102700099F4
:10027100AB07AA068B828A83E493FF600A12023ECF
:080281000BBB00010A80ED2215
:030000000202B445
:0C02B400787FE4F6D8FD75811002002E62
:1000E200BB010689828A83E0225002E722BBFE021C
:0900F200E32289828A83E493224F
:1000FB00BB010CE58229F582E5833AF583E02250BA
:10010B0006E92582F8E622BBFE06E92582F8E22203
:0D011B00E58229F582E5833AF583E493221D
:10012800BC000BBE0029EF8DF084FFADF022E4CCBB
:10013800F875F008EF2FFFEE33FEEC33FCEE9DEC84
:10014800984005FCEE9DFE0FD5F0E9E4CEFD22EDCA
:10015800F8F5F0EE8420D21CFEADF075F008EF2F14
:10016800FFED33FD4007985006D5F0F222C398FD05
:050178000FD5F0EA22A2
:00000001FF
