:0F0A41003100B6E6BBFA4944B8FCD0C2CEAA00D9
:0A0A6B0042002E000042003000009F
:10097A009000007440F0A37402F0A3120238000140
:10098A00C2009000077401F0A3F0A3F0A3F0E4A35F
:0E099A00F0A3F07B017A0079007F010202F4E5
:1009A800E4900000F0A3F0A304F0E4A3F0A304F0A3
:1009B800A374EAF0A37467F0A37401F0FB7A0079DA
:0609C80000E4FF0205E05F
:1009F0009000007402F0E4A3F0A304F0E4A3F0A3D9
:100A0000F0A3F07B017A00790012086A7F01020AE4
:010A10005E87
:1004FC0012097A1209A81209F0D2AF7BFF7A0A7995
:10050C004112000E7F01120A31900019E0D39400C1
:10051C007480948040EEE014F070E9900018E0D301
:10052C009400748094805002A1D97808E630E00BD6
:10053C007BFF7A0A794312000EA1D97808E6FD54A4
:10054C003C1313543FFF900030E07003A3E06F7036
:10055C007C7809E675F004A4FFED5403FDED4FFF24
:10056C0090002CE5F0F0A3EFF090002AE0FEA3E061
:10057C00FF7C037DE81200861209CE90002AE0FE73
:10058C00A3E0FF7C037DE81200867E007F64CFCD64
:10059C00CFCECCCE1200861209CE90002AE0FEA35C
:1005AC00E0FF7C007D641200867E007F0ACFCDCFF9
:1005BC00CECCCE1200861209CE90002AE0FEA3E02B
:1005CC00FF7C007D0A120086AF051209CEE4900074
:0405DC0018F0A11062
:03000B0002093FA8
:10093F00C0E0C0F0C083C082C0D075D000C000C07E
:10094F0001C002C003C004C005C006C0071207845F
:10095F00D007D006D005D004D003D002D001D000EC
:0B096F00D0D0D082D083D0F0D0E03296
:0B02F40090000DEBF0A3EAF0A3E9F08E
:1002FF00EF6401600281F990001404F0E4A3F0A30D
:10030F00F0A3F0A3F0A3F0A3F0FFEFC39428748041
:10031F009480500974302FF8E4F60F80EDE4FFEF6E
:10032F00C3942874809480500974082FF8E4F60F52
:10033F0080ED90000DE0FBA3E0FAA3E0F912002E90
:10034F00FD7C00D394C07480948040037F01229081
:10035F00000A12004764017004D2BC8002C2BC12B2
:10036F00002EFFE598543F4FF598ED64C04C6007A1
:10037F00EF64406002816A9000021201FC7F007EF0
:10038F00307D2A7C0012014690001012022CE4FFEF
:10039F00FE7D01FC900010E0F8A3E0F9A3E0FAA3C2
:1003AF00E0FBC31201D840037F0222900010E0F857
:1003BF00A3E0F9A3E0FAA3E0FBC3E49BFFE49AFEFA
:1003CF00740199FDE498FC90001012022C90000D1E
:1003DF00E0FBA3E0FAA3E0F9900001120047FB7ADB
:1003EF000064017038C28E538EFE5389BF5389CF7C
:1003FF00438E40900010E0FCA3E0FDA3E0FEA3E0DD
:10040F00FF78081201E98F8D900010A3A3A3E0F5E8
:10041F008BC2AB5389BF538FFDD28E807DEB6402AD
:10042F004A7035538EEF438E01538EF7438E0490EF
:10043F000010E0FCA3E0FDA3E0FEA3E0FF780812AC
:10044F0001E98FD6900010A3A3A3E0F5D753AFFB1C
:10045F00538EF7438E1080427F022290000DE0FBF7
:10046F00A3E0FAA3E0F912002EFF7E0070149000B3
:10047F000812004764017005438E20801D538EDFE4
:10048F008018EF64804E70129000081200476401CC
:10049F007005438780800353877F90000DE0FBA397
:1004AF00E0FAA3E0F990000912004764017004D24A
:1004BF00AC8002C2AC90000712004764017004D2F6
:1004CF009C8002C29C90000B12004754C0FFE5A213
:1004DF00543F4FF5A290000C120047640170054382
:0C04EF00971080035397EF7F00227F03DB
:0104FB0022DE
:1009CE00900016E02430F8A607E004F0C3942874D3
:1009DE008094804002E4F0900017E0700404F0D29E
:0209EE0099224C
:10000E0012002EFF600C1209CE740129F9E43AFA9F
:03001E0080EE224F
:0300230002070BC6
:10070B00C0E0C083C082C0D075D000C000C006C09E
:10071B0007309828C29890001AE07020900018E0DB
:10072B00C39428748094804002E4F0900018E0FF9A
:10073B0004F074082FF8A699A37405F030992BC216
:10074B0099900016E0FF900015E0FE6F6017743073
:10075B002EF8E6F599E004F0C39428748094804059
:10076B0009E4F08005900017E4F0D007D006D00024
:09077B00D0D0D082D083D0E0324E
:1005E000EFD394027480948040037F0122EF600275
:1005F000C17EC28C90000212004764017004D2A92F
:100600008002C2A990000112004764017004D2B9AF
:100610008002C2B912002EFED394037480948040ED
:10062000037F0222E58954FC4EF5899000031200F5
:1006300047FF7E0064017003538E7FEF4E700343CB
:100640008E80EF64024E700543890480035389FB5A
:1006500090000412004764017005438F018003532A
:100660008FFE9000051200D2FDACF0ECF58C8D8A67
:0F06700090000712004764017002D28C7F0022B5
:0F0A31007D527C03ED1D70011C144C70F7DFF13A
:010A40002293
:10086A0012002EF59D900001120047FFE5BC549F2F
:10087A004FF5BC9000021200476401700543BC802A
:10088A00800353BC7F900003120047640170054344
:10089A00972080035397DF90000512004764017088
:1008AA0004D2AD8002C2AD90000412004764017008
:0708BA0003D2BD22C2BD22E2
:0D0A5E00EF6401700443BC802253BC7F2272
:10080000EFD394077480948040028059E4F5BDF5DD
:10081000BEE5BC54E044084FF5BC00000000E4FB1A
:10082000EBC394FA74809480503BE5BC30E43353BE
:10083000BCEFE59730E509E5BD5403ADBEFC801D76
:10084000AFBD7C00AD077E00ED7802C333CE33CE62
:10085000D8F9FFE5BE5403FDEEFCEF4DFDAF05AE4C
:0908600004220B80BB7E047F0022
:01086900226C
:03002B00020003CD
:0400030053BCEF32C9
:10078400900029E0FF3395E0FEEF4E7005C2B2C23F
:10079400B322EF64014E705E7F0112080090002ABC
:1007A400EEF0A3EFF0A3E0FCA3E0FDC3EF9DFFEEAA
:1007B4009CFED3EF9414EE648094804005D2B2C2C0
:1007C400B322C3EF94ECEE6480947F5005C2B2D29E
:1007D400B322D3EF9408EE648094804005B2B2C291
:1007E400B322C3EF94F8EE6480947F5005C2B2B292
:0707F400B322C2B2C2B3221E
:0E0A5000E4F5C7F5C5F5C675C3FF75C4FF22F2
:1008C100AD07AC06C2AF75C78375C501ECF5C3AF03
:1008D100058FC475C65A75C6A500E5C21200740D10
:1008E100BD00010C740129F9E43AFA90002074FF6B
:0F08F100F5F01200BC45F070D3120A50D2AF22BE
:100A1100AD07AC06C2AFECF5C3AF058FC475C78394
:100A210075C50375C65A75C6A500120A50D2AF2204
:10090000AD07AC06C2AF75C78375C502ECF5C3AFC2
:10091000058FC412002EF5C275C65A75C6A5000D06
:10092000BD00010C740129F9E43AFA90002774FF24
:0F093000F5F01200BC45F070D3120A50D2AF227E
:0300000002067F76
:0C067F00787FE4F6D8FD7581570206C6AE
:10002E00BB010689828A83E0225002E722BBFE02D0
:09003E00E32289828A83E4932203
:10004700BB010CE58229F582E5833AF583E022506E
:1000570006E92582F8E622BBFE06E92582F8E222B8
:0D006700E58229F582E5833AF583E49322D2
:10007400BB010689828A83F0225002F722BBFE016B
:02008400F32265
:10008600C2D5EC30E709B2D5E4C39DFDE49CFCEE95
:1000960030E715B2D5E4C39FFFE49EFE120269C3A2
:1000A600E49DFDE49CFC800312026930D507C3E49D
:0600B6009FFFE49EFE2204
:1000BC00C5F0F8A3E028F0C5F0F8E58215827002CF
:0600CC001583E038F0226C
:1000D200BB0110E58229F582E5833AF583E0F5F06C
:1000E200A3E0225009E92582F886F008E622BBFE49
:1000F2000AE92582F8E2F5F008E222E5832AF5838F
:08010200E993F5F0A3E9932253
:10010A0075F008758200EF2FFFEE33FECD33CDCCAC
:10011A0033CCC58233C5829BED9AEC99E58298402F
:10012A000CF582EE9BFEED9AFDEC99FC0FD5F0D60C
:10013A00E4CEFBE4CDFAE4CCF9A88222B800C1B936
:10014A000059BA002DEC8BF084CFCECDFCE5F0CB74
:10015A00F97818EF2FFFEE33FEED33FDEC33FCEBAD
:10016A0033FB10D703994004EB99FB0FD8E5E4F968
:10017A00FA227818EF2FFFEE33FEED33FDEC33FC55
:10018A00C933C910D7059BE99A4007EC9BFCE99A49
:10019A00F90FD8E0E4C9FAE4CCFB2275F010EF2F8E
:1001AA00FFEE33FEED33FDCC33CCC833C810D7078E
:1001BA009BEC9AE899400AED9BFDEC9AFCE899F8C9
:0E01CA000FD5F0DAE4CDFBE4CCFAE4C8F9225C
:1001D800EB9FF5F0EA9E42F0E99D42F0E89C45F07D
:0101E80022F4
:1001E900E8600FECC313FCED13FDEE13FEEF13FFF4
:0301F900D8F12218
:1001FC00BB010DE58229F582E5833AF5830202CB3A
:10020C005007E92582F80202BEBBFE07E92582F8F9
:10021C000202D7E58229F582E5833AF5830202E4EE
:0C022C00ECF0A3EDF0A3EEF0A3EFF02245
:10023800A8828583F0D083D08212024F12024F1217
:10024800024F12024FE473E493A3C583C5F0C5833C
:10025800C8C582C8F0A3C583C5F0C583C8C582C810
:010268002273
:10068B000204FCE493A3F8E493A34003F68001F285
:10069B0008DFF48029E493A3F85407240CC8C33370
:1006AB00C4540F4420C8834004F456800146F6DF3F
:1006BB00E4800B0102040810204080900A6BE47E5A
:1006CB00019360BCA3FF543F30E509541FFEE49334
:1006DB00A360010ECF54C025E060A840B8E493A3FB
:1006EB00FAE493A3F8E493A3C8C582C8CAC583CA26
:1006FB00F0A3C8C582C8CAC583CADFE9DEE780BEDE
:010A75000080
:10026900BC000BBE0029EF8DF084FFADF022E4CC79
:10027900F875F008EF2FFFEE33FEEC33FCEE9DEC42
:10028900984005FCEE9DFE0FD5F0E9E4CEFD22ED88
:10029900F8F5F0EE8420D21CFEADF075F008EF2FD2
:1002A900FFED33FD4007985006D5F0F222C398FDC3
:0502B9000FD5F0EA2260
:0D02BE00E6FB08E6F908E6FA08E6CBF822B0
:0C02CB00E0F8A3E0F9A3E0FAA3E0FB22B6
:0D02D700E2FB08E2F908E2FA08E2CBF822A7
:1002E400E493F8740193F9740293FA740393FB2270
:00000001FF
