:10000E0049443A000D0A00B6E6BBFA4944B8FCD0A2
:04001E00C2CEAA00A4
:090B93004200230000410025008E
:100AC7009000007440F0A37402F0A312025A0001D0
:100AD700C2009000077401F0E4A3F0A304F0A3F0B0
:100AE700E4A3F0A3F07B017A0079007F01020316EB
:100AF700E4900000F0A3F0A304F0E4A3F0A304F053
:100B0700A374FAF0A3749AF0A37401F0FB7A007946
:060B170000E4FF020800EB
:100B3F009000007401F0E4A3F0A304F0E4A3F0A389
:100B4F00F0A3F07B017A0079001207A37F01020B5B
:010B5F00C3D2
:10051E00538EFD120AC7120AF7120B3FE490001514
:10052E00F0D2AF7B017A007925900005F0A304F09C
:10053E00E4FFFE120A0E7BFF7A00790E120B8090FA
:10054E000025E0FF75F06412002EAFF0EF75F00A93
:10055E0012002E2430FF120B1D900025E0FF75F0C7
:10056E000A12002EAFF0EF2430FF120B1D7BFF7A24
:10057E00007912120B807F01120BA5900021E0D39F
:10058E0094007480948040EEE014F070E9900020A6
:10059E00E0D39400748094805002C1C27808E6FFC4
:1005AE0054C064C07063EF543F900025F0E4FFFE2A
:1005BE00120B607B017A007925900005E4F0A3040C
:1005CE00F0E4FFFE120A4D7BFF7A007915120B80C4
:1005DE00900025E0FF75F06412002EAFF0EF75F07D
:1005EE000A12002E2430FF120B1D900025E0FF751D
:1005FE00F00A12002EAFF0EF2430FF120B1D7BFF1E
:10060E007A007912120B80C1C27808E6FF543C13AF
:10061E0013543FFE900025E06E6002C1C2EF54C03D
:10062E00C413135403900015F008E6FD75F004A4EE
:10063E00FF900018E5F0F0A3EFF0A3EDF090001698
:10064E00E0FEA3E0FF7C037DE81200A8EF2430FF5C
:10065E00120B1D900016E0FEA3E0FF7C037DE81256
:10066E0000A87E007F64CFCDCFCECCCE1200A8EFF7
:10067E002430FF120B1D900016E0FEA3E0FF7C005D
:10068E007D641200A87E007F0ACFCDCFCECCCE12D5
:10069E0000A8EF2430FF120B1D900016E0FEA3E021
:1006AE00FF7C007D0A1200A8ED2430FF120B1D7F87
:0B06BE0020120B1DE4900020F0A1842E
:03000B00020A8C5A
:100A8C00C0E0C0F0C083C082C0D075D000C000C030
:100A9C0001C002C003C004C005C006C0071206C9CD
:100AAC00D007D006D005D004D003D002D001D0009E
:0B0ABC00D0D0D082D083D0F0D0E03248
:0B03160090000DEBF0A3EAF0A3E9F06B
:10032100EF64016002A11B90001C04F0E4A3F0A3A0
:10033100F0A3F0A3F0A3F0A3F0FFEFC3942874801F
:100341009480500974302FF8E4F60F80EDE4FFEF4C
:10035100C3942874809480500974082FF8E4F60F30
:1003610080ED90000DE0FBA3E0FAA3E0F91200504C
:10037100FD7C00D394C07480948040037F0122905F
:10038100000A12006964017004D2BC8002C2BC126E
:100391000050FFE598543F4FF598ED64C04C60075D
:1003A100EF64406002818C90000212021E7F007E89
:1003B100307D2A7C0012016890001012024EE4FF89
:1003C100FE7D01FC900010E0F8A3E0F9A3E0FAA3A0
:1003D100E0FBC31201FA40037F0222900010E0F813
:1003E100A3E0F9A3E0FAA3E0FBC3E49BFFE49AFED8
:1003F100740199FDE498FC90001012024E90000DDA
:10040100E0FBA3E0FAA3E0F9900001120069FB7A96
:100411000064017038C28E538EFE5389BF5389CF59
:10042100438E40900010E0FCA3E0FDA3E0FEA3E0BA
:10043100FF780812020B8F8D900010A3A3A3E0F5A3
:100441008BC2AB5389BF538FFDD28E807DEB64028B
:100451004A7035538EEF438E01538EF7438E0490CD
:100461000010E0FCA3E0FDA3E0FEA3E0FF7808128A
:10047100020B8FD6900010A3A3A3E0F5D753AFFBD7
:10048100538EF7438E1080427F022290000DE0FBD5
:10049100A3E0FAA3E0F9120050FF7E00701490006F
:1004A1000812006964017005438E20801D538EDFA0
:1004B1008018EF64804E7012900008120069640188
:1004C1007005438780800353877F90000DE0FBA375
:1004D100E0FAA3E0F990000912006964017004D206
:1004E100AC8002C2AC90000712006964017004D2B2
:1004F1009C8002C29C90000B12006954C0FFE5A2CF
:10050100543F4FF5A290000C12006964017005433D
:0C051100971080035397EF7F00227F03B8
:01051D0022BB
:100B1D0090001EE02430F8A607E004F0C39428747A
:100B2D008094804002E4F090001FE0700404F0D245
:020B3D009922FB
:100B8000120050FF600C120B1D740129F9E43AFAAF
:030B900080EE22D2
:0300230002092BA4
:10092B00C0E0C083C082C0D075D000C000C006C07C
:10093B0007309828C298900022E07020900020E0A9
:10094B00C39428748094804002E4F0900020E0FF70
:10095B0004F074082FF8A699A37405F030992BC2F4
:10096B009990001EE0FF90001DE0FE6F6017743041
:10097B002EF8E6F599E004F0C39428748094804037
:10098B0009E4F0800590001FE4F0D007D006D000FA
:09099B00D0D0D082D083D0E0322C
:10080000EFD394027480948040037F0122EF600252
:10081000019EC28C90000212006964017004D2A98A
:100820008002C2A990000112006964017004D2B96B
:100830008002C2B9120050FED394037480948040A9
:10084000037F0222E58954FC4EF5899000031200D3
:1008500069FF7E0064017003538E7FEF4E70034387
:100860008E80EF64024E700543890480035389FB38
:1008700090000412006964017005438F01800353E6
:100880008FFE9000051200F4FDACF0ECF58C8D8A23
:0F08900090000712006964017002D28C7F002271
:0F0BA5007D527C03ED1D70011C144C70F7DFF1C5
:010BB400221E
:1007A300120050F59D900001120069FFE5BC549FB3
:1007B3004FF5BC9000021200696401700543BC80D0
:1007C300800353BC7F9000031200696401700543EA
:1007D300972080035397DF9000051200696401702E
:1007E30004D2AD8002C2AD900004120069640170AE
:0707F30003D2BD22C2BD22AA
:0D0BC300EF6401700443BC802253BC7F220C
:1009A400EFD394077480948040028059E4F5BDF538
:1009B400BEE5BC54E044084FF5BC00000000E4FB75
:1009C400EBC394FA74809480503BE5BC30E4335319
:1009D400BCEFE59730E509E5BD5403ADBEFC801DD1
:1009E400AFBD7C00AD077E00ED7802C333CE33CEBD
:1009F400D8F9FFE5BE5403FDEEFCEF4DFDAF05AEA7
:090A040004220B80BB7E047F007C
:010A0D0022C6
:03002B00020003CD
:0400030053BCEF32C9
:080B9C0041001B004100147F21
:1006C900900015E0FF3395E0FEEF4E7002805FEF7A
:1006D90064014E705EFF1209A4900016EEF0A3EFBC
:1006E900F0A3E0FCA3E0FDC3EF9DFFEE9CFED3EF7A
:1006F9009414EE648094804005D2B2C2B322C3EF51
:1007090094ECEE6480947F5005C2B2D2B322D3EF49
:100719009404EE648094804005B2B2C2B322C3EF60
:1007290094FCEE6480947F5005C2B2B2B322C2B287
:10073900C2B322900015E0FF3395E0FEEF64024E4C
:100749007057900014E0FF3395E0FEEF4E70309043
:10075900001AE0FF3395E0FED3EF9400EE64809435
:10076900804002C2B3C3EE648094805002D2B39039
:100779000014747FF090001AE0547FA3F0D2B29075
:10078900001BE0FF3395E0FEEF4E6005E014F080BA
:0A07990002C2B2900014E014F02236
:0E0BB500E4F5C7F5C5F5C675C3FF75C4FF228C
:100A0E00AD07AC06C2AF75C78375C501ECF5C3AFB4
:100A1E00058FC475C65A75C6A500E5C21200960D9F
:100A2E00BD00010C740129F9E43AFA90000574FF37
:0F0A3E00F5F01200DE45F070D3120BB5D2AF22E7
:100B6000AD07AC06C2AFECF5C3AF058FC475C78344
:100B700075C50375C65A75C6A500120BB5D2AF224E
:100A4D00AD07AC06C2AF75C78375C502ECF5C3AF74
:100A5D00058FC4120050F5C275C65A75C6A5000D96
:100A6D00BD00010C740129F9E43AFA90000574FFF8
:0F0A7D00F5F01200DE45F070D3120BB5D2AF22A8
:0300000002089F54
:0C089F00787FE4F6D8FD7581570208E66A
:10002E00C2D530F707B2D563F0FF05F030E70CB25A
:10003E00D5F4048463F0FF05F080018430D502F41A
:02004E0004228A
:10005000BB010689828A83E0225002E722BBFE02AE
:09006000E32289828A83E49322E1
:10006900BB010CE58229F582E5833AF583E022504C
:1000790006E92582F8E622BBFE06E92582F8E22296
:0D008900E58229F582E5833AF583E49322B0
:10009600BB010689828A83F0225002F722BBFE0149
:0200A600F32243
:1000A800C2D5EC30E709B2D5E4C39DFDE49CFCEE73
:1000B80030E715B2D5E4C39FFFE49EFE12028BC35E
:1000C800E49DFDE49CFC800312028B30D507C3E459
:0600D8009FFFE49EFE22E2
:1000DE00C5F0F8A3E028F0C5F0F8E58215827002AD
:0600EE001583E038F0224A
:1000F400BB0110E58229F582E5833AF583E0F5F04A
:10010400A3E0225009E92582F886F008E622BBFE26
:100114000AE92582F8E2F5F008E222E5832AF5836C
:08012400E993F5F0A3E9932231
:10012C0075F008758200EF2FFFEE33FECD33CDCC8A
:10013C0033CCC58233C5829BED9AEC99E58298400D
:10014C000CF582EE9BFEED9AFDEC99FC0FD5F0D6EA
:10015C00E4CEFBE4CDFAE4CCF9A88222B800C1B914
:10016C000059BA002DEC8BF084CFCECDFCE5F0CB52
:10017C00F97818EF2FFFEE33FEED33FDEC33FCEB8B
:10018C0033FB10D703994004EB99FB0FD8E5E4F946
:10019C00FA227818EF2FFFEE33FEED33FDEC33FC33
:1001AC00C933C910D7059BE99A4007EC9BFCE99A27
:1001BC00F90FD8E0E4C9FAE4CCFB2275F010EF2F6C
:1001CC00FFEE33FEED33FDCC33CCC833C810D7076C
:1001DC009BEC9AE899400AED9BFDEC9AFCE899F8A7
:0E01EC000FD5F0DAE4CDFBE4CCFAE4C8F9223A
:1001FA00EB9FF5F0EA9E42F0E99D42F0E89C45F05B
:01020A0022D1
:10020B00E8600FECC313FCED13FDEE13FEEF13FFD1
:03021B00D8F122F5
:10021E00BB010DE58229F582E5833AF5830202EDF5
:10022E005007E92582F80202E0BBFE07E92582F8B5
:10023E000202F9E58229F582E5833AF58302030687
:0C024E00ECF0A3EDF0A3EEF0A3EFF02223
:10025A00A8828583F0D083D08212027112027112B1
:10026A000271120271E473E493A3C583C5F0C583D6
:10027A00C8C582C8F0A3C583C5F0C583C8C582C8EE
:01028A002251
:1008AB0002051EE493A3F8E493A34003F68001F240
:1008BB0008DFF48029E493A3F85407240CC8C3334E
:1008CB00C4540F4420C8834004F456800146F6DF1D
:1008DB00E4800B0102040810204080900B93E47E0F
:1008EB00019360BCA3FF543F30E509541FFEE49312
:1008FB00A360010ECF54C025E060A840B8E493A3D9
:10090B00FAE493A3F8E493A3C8C582C8CAC583CA03
:10091B00F0A3C8C582C8CAC583CADFE9DEE780BEBB
:010BA4000050
:10028B00BC000BBE0029EF8DF084FFADF022E4CC57
:10029B00F875F008EF2FFFEE33FEEC33FCEE9DEC20
:1002AB00984005FCEE9DFE0FD5F0E9E4CEFD22ED66
:1002BB00F8F5F0EE8420D21CFEADF075F008EF2FB0
:1002CB00FFED33FD4007985006D5F0F222C398FDA1
:0502DB000FD5F0EA223E
:0D02E000E6FB08E6F908E6FA08E6CBF8228E
:0C02ED00E0F8A3E0F9A3E0FAA3E0FB2294
:0D02F900E2FB08E2F908E2FA08E2CBF82285
:10030600E493F8740193F9740293FA740393FB224D
:00000001FF
